:020000040800F2
:1000000000400020414400084D1C0008591C000815
:100010005F1C0008651C00086B1C00080000000045
:10002000000000000000000000000000711C00083B
:100030007D1C000800000000891C0008951C0008B9
:10004000894400088944000889440008894400085C
:10005000894400088944000889440008894400084C
:1000600000000000F91C00088944000889440008C9
:1000700089440008051D00088944000800000000AC
:1000800089440008894400080000000089440008F1
:10009000894400088944000889440008894400080C
:1000A000894400088944000889440008A11C00080C
:1000B000894400080000000000000000000000006B
:0C00C0008944000800000000894400088A
:1000D00010B5054C237833B9044B13B10448AFF382
:1000E00000800123237010BD2002002000000000CA
:1000F000DC79000808B5034B1BB103490348AFF393
:10010000008008BD0000000024020020DC79000807
:1001100081F0004102E000BF83F0004330B54FEAB8
:1001200041044FEA430594EA050F08BF90EA020F25
:100130001FBF54EA000C55EA020C7FEA645C7FEAB8
:10014000655C00F0E2804FEA5454D4EB5555B8BFDB
:100150006D420CDD2C4480EA020281EA030382EA4C
:10016000000083EA010180EA020281EA0303362DDE
:1001700088BF30BD11F0004F4FEA01314FF4801CB1
:100180004CEA113102D0404261EB410113F0004FC3
:100190004FEA03334CEA133302D0524263EB43037A
:1001A00094EA050F00F0A780A4F10104D5F1200E18
:1001B0000DDB02FA0EFC22FA05F2801841F1000173
:1001C00003FA0EF2801843FA05F359410EE0A5F147
:1001D00020050EF1200E012A03FA0EFC28BF4CF078
:1001E000020C43FA05F3C01851EBE37101F000452E
:1001F00007D54FF0000EDCF1000C7EEB00006EEB3B
:100200000101B1F5801F1BD3B1F5001F0CD34908C4
:100210005FEA30004FEA3C0C04F101044FEA44521B
:1002200012F5800F80F09A80BCF1004F08BF5FEAA2
:10023000500C50F1000041EB045141EA050130BD82
:100240005FEA4C0C404141EB0101013C28BFB1F594
:10025000801FE9D291F0000F04BF01460020B1FADF
:1002600081F308BF2033A3F10B03B3F120020CDAB2
:100270000C3208DD02F1140CC2F10C0201FA0CF090
:1002800021FA02F10CE002F11402D8BFC2F1200CF5
:1002900001FA02F120FA0CFCDCBF41EA0C019040AB
:1002A000E41AA2BF01EB0451294330BD6FEA0404F4
:1002B0001F3C1CDA0C340EDC04F11404C4F12002DF
:1002C00020FA04F001FA02F340EA030021FA04F3F1
:1002D00045EA030130BDC4F10C04C4F1200220FA48
:1002E00002F001FA04F340EA0300294630BD21FA86
:1002F00004F0294630BD94F0000F83F4801306BF4C
:1003000081F480110134013D4EE77FEA645C18BF3F
:100310007FEA655C29D094EA050F08BF90EA020FD6
:1003200005D054EA000C04BF1946104630BD91EACE
:10033000030F1EBF0021002030BD5FEA545C05D1D1
:100340004000494128BF41F0004130BD14F5800410
:100350003CBF01F5801130BD01F0004545F0FE4184
:1003600041F470014FF0000030BD7FEA645C1ABFB9
:10037000194610467FEA655C1CBF0B46024650EAF0
:10038000013406BF52EA033591EA030F41F400211C
:1003900030BD00BF90F0000F04BF0021704730B5A2
:1003A0004FF4806404F132044FF000054FF0000177
:1003B00050E700BF90F0000F04BF0021704730B538
:1003C0004FF4806404F1320410F0004548BF40420D
:1003D0004FF000013EE700BF42004FEAE2014FEA62
:1003E00031014FEA02701FBF12F07F4393F07F4F3D
:1003F00081F06051704732F07F4208BF704793F040
:100400007F4F04BF41F40021704730B54FF4607452
:1004100001F0004521F000411CE700BF50EA010255
:1004200008BF704730B54FF000050AE050EA0102FE
:1004300008BF704730B511F0004502D5404261EB6E
:1004400041014FF4806404F132045FEA915C3FF4AF
:10045000D8AE4FF003025FEADC0C18BF03325FEA4C
:10046000DC0C18BF033202EBDC02C2F1200300FAFD
:1004700003FC20FA02F001FA03FE40EA0E0021FA22
:1004800002F11444BDE600BF70B54FF0FF0C4CF410
:10049000E06C1CEA11541DBF1CEA135594EA0C0FC2
:1004A00095EA0C0F00F0DEF82C4481EA030621EAFD
:1004B0004C5123EA4C5350EA013518BF52EA033538
:1004C00041F4801143F4801338D0A0FB02CE4FF0EA
:1004D0000005E1FB02E506F00042E0FB03E54FF01A
:1004E0000006E1FB03569CF0000F18BF4EF0010E12
:1004F000A4F1FF04B6F5007F64F5407404D25FEA0E
:100500004E0E6D4146EB060642EAC62141EA5551C0
:100510004FEAC52040EA5E504FEACE2EB4F1FD0C02
:1005200088BFBCF5E06F1ED8BEF1004F08BF5FEA80
:10053000500E50F1000041EB045170BD06F0004632
:1005400046EA010140EA020081EA0301B4EB5C04DF
:10055000C2BFD4EB0C0541EA045170BD41F48011D7
:100560004FF0000E013C00F3AB8014F1360FDEBFFC
:10057000002001F0004170BDC4F10004203C35DAD8
:100580000C341BDC04F11404C4F1200500FA05F35B
:1005900020FA04F001FA05F240EA020001F00042FC
:1005A00021F0004110EBD37021FA04F642EB060172
:1005B0005EEA430E08BF20EAD37070BDC4F10C049C
:1005C000C4F1200500FA04F320FA05F001FA04F260
:1005D00040EA020001F0004110EBD37041F100014C
:1005E0005EEA430E08BF20EAD37070BDC4F1200557
:1005F00000FA05F24EEA020E20FA04F301FA05F2BF
:1006000043EA020321FA04F001F0004121FA04F266
:1006100020EA020000EBD3705EEA430E08BF20EA36
:10062000D37070BD94F0000F0FD101F00046400070
:1006300041EB010111F4801F08BF013CF7D041EAF2
:10064000060195F0000F18BF704703F000465200F6
:1006500043EB030313F4801F08BF013DF7D043EAC7
:100660000603704794EA0C0F0CEA135518BF95EA7D
:100670000C0F0CD050EA410618BF52EA4306D1D104
:1006800081EA030101F000414FF0000070BD50EA23
:10069000410606BF1046194652EA430619D094EAAD
:1006A0000C0F02D150EA013613D195EA0C0F05D197
:1006B00052EA03361CBF104619460AD181EA0301EB
:1006C00001F0004141F0FE4141F470014FF00000A3
:1006D00070BD41F0FE4141F4780170BD70B54FF03E
:1006E000FF0C4CF4E06C1CEA11541DBF1CEA1355BE
:1006F00094EA0C0F95EA0C0F00F0A7F8A4EB0504A0
:1007000081EA030E52EA03354FEA013100F0888096
:100710004FEA03334FF0805545EA131343EA12635F
:100720004FEA022245EA111545EA10654FEA002614
:100730000EF000419D4208BF964244F1FD0404F5CD
:10074000407402D25B084FEA3202B61A65EB030529
:100750005B084FEA32024FF480104FF4002CB6EBE6
:10076000020E75EB030E22BFB61A754640EA0C0066
:100770005B084FEA3202B6EB020E75EB030E22BFA6
:10078000B61A754640EA5C005B084FEA3202B6EBE7
:10079000020E75EB030E22BFB61A754640EA9C00A6
:1007A0005B084FEA3202B6EB020E75EB030E22BF76
:1007B000B61A754640EADC0055EA060E18D04FEA34
:1007C000051545EA16754FEA06164FEAC30343EAD4
:1007D00052734FEAC2025FEA1C1CC0D111F4801FA1
:1007E0000BD141EA00014FF000004FF0004CB6E79A
:1007F00011F4801F04BF01430020B4F1FD0C88BF39
:10080000BCF5E06F3FF6AFAEB5EB030C04BFB6EB43
:10081000020C5FEA500C50F1000041EB045170BD36
:100820000EF0004E4EEA113114EB5C04C2BFD4EB63
:100830000C0541EA045170BD41F480114FF0000EE7
:10084000013C90E645EA060E8DE60CEA135594EA63
:100850000C0F08BF95EA0C0F3FF43BAF94EA0C0F66
:100860000AD150EA01347FF434AF95EA0C0F7FF4DB
:1008700025AF104619462CE795EA0C0F06D152EA2F
:1008800003353FF4FDAE1046194622E750EA410613
:1008900018BF52EA43067FF4C5AE50EA41047FF424
:1008A0000DAF52EA43057FF4EBAE12E74FEA410287
:1008B000B2F1E04324BFB3F5001CDCF1FE5C0DD9BE
:1008C00001F0004C4FEAC0024CEA5070B2F1004F08
:1008D00040EB830008BF20F00100704711F0804F0B
:1008E00021D113F13872BCBF01F00040704741F4D0
:1008F00080114FEA5252C2F11802C2F1200C10FAD4
:100900000CF320FA02F018BF40F001004FEAC123B7
:100910004FEAD32303FA0CFC40EA0C0023FA02F35B
:100920004FEA4303CCE77FEA625307D150EA013331
:100930001EBF4FF0FE4040F44000704701F0004001
:1009400040F0FE4040F40000704700BF80F00040DF
:1009500002E000BF81F0004142001FBF5FEA410397
:1009600092EA030F7FEA226C7FEA236C6AD04FEA97
:100970001262D2EB1363C1BFD218414048404140DC
:10098000B8BF5B42192B88BF704710F0004F40F48E
:10099000000020F07F4018BF404211F0004F41F4AA
:1009A000000121F07F4118BF494292EA030F3FD076
:1009B000A2F1010241FA03FC10EB0C00C3F1200389
:1009C00001FA03F100F0004302D5494260EB400018
:1009D000B0F5000F13D3B0F1807F06D340084FEA83
:1009E000310102F10102FE2A51D2B1F1004F40EB78
:1009F000C25008BF20F0010040EA030070474900E0
:100A000040EB0000013A28BFB0F5000FEDD2B0FA7C
:100A100080FCACF1080CB2EB0C0200FA0CF0AABF9F
:100A200000EBC25052421843BCBFD040184370473D
:100A300092F0000F81F4000106BF80F40000013243
:100A4000013BB5E74FEA41037FEA226C18BF7FEA1A
:100A5000236C21D092EA030F04D092F0000F08BF5C
:100A60000846704790EA010F1CBF0020704712F043
:100A70007F4F04D1400028BF40F00040704712F182
:100A800000723CBF00F50000704700F0004343F0E7
:100A9000FE4040F4000070477FEA226216BF08461D
:100AA0007FEA23630146420206BF5FEA412390EAE0
:100AB000010F40F4800070474FF0000304E000BFD6
:100AC00010F0004348BF40425FEA000C08BF704787
:100AD00043F0964301464FF000001CE050EA01024B
:100AE00008BF70474FF000030AE000BF50EA010260
:100AF00008BF704711F0004302D5404261EB41014D
:100B00005FEA010C02BF84460146002043F0B64371
:100B100008BFA3F18053A3F50003BCFA8CF2083A96
:100B2000A3EBC25310DB01FA02FC634400FA02FC9F
:100B3000C2F12002BCF1004F20FA02F243EB0200A6
:100B400008BF20F00100704702F1200201FA02FC08
:100B5000C2F1200250EA4C0021FA02F243EB0200FB
:100B600008BF20EADC7070474FF0FF0C1CEAD0523F
:100B70001EBF1CEAD15392EA0C0F93EA0C0F6FD000
:100B80001A4480EA010C400218BF5FEA41211ED0DE
:100B90004FF0006343EA501043EA5111A0FB0131CA
:100BA0000CF00040B1F5000F3EBF490041EAD3719F
:100BB0005B0040EA010062F17F02FD2A1DD8B3F11B
:100BC000004F40EBC25008BF20F00100704790F08A
:100BD000000F0CF0004C08BF49024CEA502040EADC
:100BE00051207F3AC2BFD2F1FF0340EAC2507047A2
:100BF00040F400004FF00003013A5DDC12F1190FE0
:100C0000DCBF00F000407047C2F10002410021FA51
:100C100002F1C2F1200200FA02FC5FEA310040F169
:100C2000000053EA4C0308BF20EADC70704792F0E2
:100C3000000F00F0004C02BF400010F4000F013A1A
:100C4000F9D040EA0C0093F0000F01F0004C02BF15
:100C5000490011F4000F013BF9D041EA0C018FE784
:100C60000CEAD15392EA0C0F18BF93EA0C0F0AD08A
:100C700030F0004C18BF31F0004CD8D180EA0100B0
:100C800000F00040704790F0000F17BF90F0004F49
:100C9000084691F0000F91F0004F14D092EA0C0F2B
:100CA00001D142020FD193EA0C0F03D14B0218BFBE
:100CB000084608D180EA010000F0004040F0FE4004
:100CC00040F40000704740F0FE4040F440007047A0
:100CD0004FF0FF0C1CEAD0521EBF1CEAD15392EA1F
:100CE0000C0F93EA0C0F69D0A2EB030280EA010C0F
:100CF00049024FEA402037D04FF0805343EA1111A8
:100D000043EA10130CF000408B4238BF5B0042F105
:100D10007D024FF4000C8B4224BF5B1A40EA0C00AA
:100D2000B3EB510F24BFA3EB510340EA5C00B3EBDC
:100D3000910F24BFA3EB910340EA9C00B3EBD10FCA
:100D400024BFA3EBD10340EADC001B0118BF5FEA1C
:100D50001C1CE0D1FD2A3FF650AF8B4240EBC25045
:100D600008BF20F0010070470CF0004C4CEA502006
:100D70007F32C2BFD2F1FF0340EAC250704740F455
:100D800000004FF00003013A37E792F0000F00F047
:100D9000004C02BF400010F4000F013AF9D040EAC5
:100DA0000C0093F0000F01F0004C02BF490011F459
:100DB000000F013BF9D041EA0C0195E70CEAD15351
:100DC00092EA0C0F08D142027FF47DAF93EA0C0F38
:100DD0007FF470AF084676E793EA0C0F04D14B021C
:100DE0003FF44CAF08466EE730F0004C18BF31F0CE
:100DF000004CCAD130F000427FF45CAF31F00043C8
:100E00007FF43CAF5FE700BF4FF0FF3C06E000BF60
:100E10004FF0010C02E000BF4FF0010C4DF804CD83
:100E20004FEA40024FEA41037FEA226C18BF7FEA93
:100E3000236C11D001B052EA530C18BF90EA010F95
:100E400058BFB2EB030088BFC81738BF6FEAE17024
:100E500018BF40F0010070477FEA226C02D15FEAC0
:100E6000402C05D17FEA236CE4D15FEA412CE1D02C
:100E70005DF8040B704700BF844608466146FFE7F3
:100E80000FB5FFF7C9FF002848BF10F1000F0FBDD5
:100E90004DF808EDFFF7F4FF0CBF012000205DF8CE
:100EA00008FB00BF4DF808EDFFF7EAFF34BF012053
:100EB00000205DF808FB00BF4DF808EDFFF7E0FFEC
:100EC00094BF012000205DF808FB00BF4DF808ED3D
:100ED000FFF7D2FF94BF012000205DF808FB00BFA0
:100EE0004DF808EDFFF7C8FF34BF012000205DF882
:100EF00008FB00BF53B94AB9002908BF00281CBF2E
:100F00004FF0FF314FF0FF3000F074B9ADF1080C35
:100F10006DE904CE00F006F8DDF804E0DDE9022317
:100F200004B070472DE9F047089E0D4604468846F8
:100F3000002B4DD18A42944668D9B2FA82F252B15E
:100F400001FA02F3C2F1200120FA01F10CFA02FCCD
:100F500041EA030894404FEA1C45210CB8FBF5FE1A
:100F60001FFA8CF705FB1E8341EA03430EFB07F1D2
:100F700099420BD91CEB03030EF1FF3080F01E8168
:100F8000994240F21B81AEF1020E63445B1AA4B297
:100F9000B3FBF5F005FB103344EA034400FB07F70D
:100FA000A7420AD91CEB040400F1FF3380F008814A
:100FB000A74240F2058164440238E41B40EA0E4037
:100FC00000211EB1D4400023C6E90043BDE8F087EC
:100FD0008B4208D9002E00F0EE800021C6E9000502
:100FE0000846BDE8F087B3FA83F100294AD1AB4245
:100FF00002D3824200F2F980841A65EB03030120D8
:101000009846002EE2D0C6E90048DFE702B9FFDECD
:10101000B2FA82F2002A40F09180A1EB0C054FEA6F
:101020001C471FFA8CFE0121B5FBF7F307FB135099
:10103000250C45EA00450EFB03F0A84208D91CEB3D
:10104000050503F1FF3802D2A84200F2CB804346E7
:101050002D1AA4B2B5FBF7F007FB105544EA05447E
:101060000EFB00FEA64508D91CEB040400F1FF3579
:1010700002D2A64500F2BB802846A4EB0E0440EA4B
:1010800003409EE7C1F120078B4022FA07FC4CEA9F
:10109000030C20FA07F405FA01F31C43FD404FEA64
:1010A0001C4900FA01F3B5FBF9F8200C1FFA8CFE7D
:1010B00009FB185540EA054508FB0EF0A84202FA64
:1010C00001F20BD91CEB050508F1FF3A80F088808E
:1010D000A84240F28580A8F1020865442D1AA4B206
:1010E000B5FBF9F009FB105544EA054500FB0EFE7F
:1010F000AE4508D91CEB050500F1FF346CD2AE45B6
:101100006AD90238654440EA0840A0FB0294A5EB86
:101110000E05A542C846A64656D353D05EB1B3EBE2
:10112000080265EB0E0505FA07F722FA01F3CD4038
:101130001F43C6E900750021BDE8F087C2F1200316
:1011400020FA03F10CFA02FC25FA03F395400D4353
:101150004FEA1C471FFA8CFEB3FBF7F107FB113077
:101160002B0C43EA004301FB0EF0984204FA02F410
:1011700008D91CEB030301F1FF382FD298422DD977
:10118000023963441B1AADB2B3FBF7F007FB10330F
:1011900045EA034500FB0EF3AB4208D91CEB0505FD
:1011A00000F1FF3816D2AB4214D902386544ED1A6B
:1011B00040EA014138E73146304607E78646E5E632
:1011C0001846FAE64B45A9D2B9EB020864EB0C0EBF
:1011D0000138A3E74046EAE7204694E74146D1E7D5
:1011E000D0467BE7023B654432E7084609E76444A2
:1011F000023842E7704700BF10F8012B11F8013B9D
:10120000012A28BF9A42F7D0D01A7047034613F834
:10121000012B002AFBD1181A01387047000000008A
:1012200001F0FF01102A2BDB10F0070F08D010F897
:10123000013B013A8B422DD010F0070F42B3F6D19B
:10124000F0B441EA012141EA014122F007047FF0B4
:1012500000070023F0E80256083C85EA010586EA0B
:10126000010685FA47F5A3FA87F586FA47F6A5FA47
:1012700087F68EB9EED1F0BC01F0FF0102F0070253
:1012800032B110F8013B013A83EA010313B1F8D1FE
:101290000020704701387047002D06BF35460338DF
:1012A000073815F0010F07D1013015F4807F02BF18
:1012B000013015F4C03F0130F0BC0138704700BF69
:1012C0004FF0FF3C06E000BF4FF0010C02E000BF12
:1012D0004FF0010C4DF804CD4FEA410C7FEA6C5CF5
:1012E0004FEA430C18BF7FEA6C5C1BD001B050EA98
:1012F000410C0CBF52EA430C91EA030F02BF90EA83
:10130000020F0020704710F1000F91EA030F58BF41
:10131000994208BF90422CBFD8176FEAE37040F0A3
:10132000010070474FEA410C7FEA6C5C02D150EA41
:10133000013C07D14FEA430C7FEA6C5CD6D152EAFC
:10134000033CD3D05DF8040B704700BF84461046C1
:1013500062468C461946634600E000BF01B5FFF7C0
:10136000B7FF002848BF10F1000F01BD4DF808ED90
:10137000FFF7F4FF0CBF012000205DF808FB00BF61
:101380004DF808EDFFF7EAFF34BF012000205DF8BB
:1013900008FB00BF4DF808EDFFF7E0FF94BF012008
:1013A00000205DF808FB00BF4DF808EDFFF7CEFF09
:1013B00094BF012000205DF808FB00BF4DF808ED48
:1013C000FFF7C4FF34BF012000205DF808FB00BF19
:1013D0004FEA410C7FEA6C5C02D150EA013C0AD131
:1013E0004FEA430C7FEA6C5C02D152EA033C02D123
:1013F0004FF0000070474FF0010070474FEA410284
:1014000012F5001215D211D56FF47873B3EB625256
:1014100012D94FEAC12343F0004343EA505311F07D
:10142000004F23FA02F018BF404270474FF000000F
:10143000704750EA013005D111F0004008BF6FF04D
:10144000004070474FF00000704700BF80B485B087
:1014500000AF78600B467B80214A7B6852F82330CE
:1014600020497A68642000FB02F213447A8821F84C
:1014700013201B4A7B6852F823305A1C18497B689A
:1014800041F82320164A7B6852F82330632B04DD91
:10149000134A7B68002142F823100023FB600023DD
:1014A000BB600FE00F497B68642203FB02F2BB685C
:1014B000134431F813301A46FB681344FB60BB68D1
:1014C0000133BB60BB68632BECDDFB68064AA2FB03
:1014D00003235B099BB218461437BD4680BC704796
:1014E0003C0200206C0200201F85EB510000000030
:1014F00080B582B000AF0346FB80FB881846FFF73B
:10150000DBFA03461846FEF767FF19A3D3E9002369
:10151000FEF7BAFF02460B46104619464FF000028E
:10152000194BFFF7DBF802460B4613A1D1E9000186
:10153000FEF7F2FD02460B461046194610A3D3E90A
:101540000023FFF7CBF802460B46104619464FF032
:1015500000020E4BFEF7E2FD02460B46104619460E
:10156000FFF7A4F9034618460837BD4680BD00BF03
:101570006666666666660A40295C8FC2F528F43F97
:1015800033E197FA795371BF0000B0400000394051
:1015900080B582B000AF0346FB80FB881846FFF79A
:1015A0008FFA034619460448FFF792FB0346184694
:1015B0000837BD4680BD00BF00909945000000007F
:1015C00080B582B000AF0346FB80FB881846FFF76A
:1015D00073FA03461846FEF7FFFE11A3D3E9002372
:1015E000FEF752FF02460B46104619464FF0000226
:1015F0000D4BFFF773F802460B46104619464FF0A5
:1016000000020A4BFEF740FF02460B461046194601
:10161000FFF74CF9034618460837BD4680BD00BFAA
:101620006666666666660A400000B04000003740A5
:1016300080B582B000AF0346FB80FB881846FFF7F9
:101640003BFA03461846FEF7C7FE11A3D3E9002371
:10165000FEF71AFF02460B46104619464FF00002ED
:101660000D4BFFF73BF802460B46104619464FF06C
:1016700000020A4BFEF708FF02460B4610461946C9
:10168000FFF714F9034618460837BD4680BD00BF72
:101690006666666666660A400000B0400000374035
:1016A00080B586B000AF0346FB80FB881846FFF785
:1016B00003FA03461846FEF78FFE23A3D3E900235F
:1016C000FEF7E2FE02460B46104619464FF00002B6
:1016D0001F4BFFF703F802460B4610461946FFF76B
:1016E000E5F803467B611B4B9B8B9BB21846FFF7CB
:1016F000E3F903461846FEF76FFE13A3D3E9002370
:10170000FEF7C2FE02460B46104619464FF0000295
:101710000F4BFEF7E3FF02460B4610461946FFF754
:10172000C5F803463B6139697869FFF713F9034649
:1017300009491846FFF718FA0346FB60FB6818468C
:101740001837BD4680BD00BF6666666666660A409D
:101750000000B04000000020000020410000000018
:1017600080B586B000AF0346FB80FB881846FFF7C4
:10177000A3F903461846FEF72FFE23A3D3E900235F
:10178000FEF782FE02460B46104619464FF0000255
:101790001F4BFEF7A3FF02460B4610461946FFF704
:1017A00085F803467B611B4B9B8B9BB21846FFF76A
:1017B00083F903461846FEF70FFE13A3D3E900236F
:1017C000FEF762FE02460B46104619464FF0000235
:1017D0000F4BFEF783FF02460B4610461946FFF7F4
:1017E00065F803463B6139697869FFF7B3F803464A
:1017F00009491846FFF7B8F90346FB60FB6818462D
:101800001837BD4680BD00BF6666666666660A40DC
:101810000000B0400000002000004841000000002F
:1018200080B584B000AF0346FB80FB881846FFF705
:1018300043F903461846FEF7CFFD15A3D3E900236D
:10184000FEF722FE02460B46104619464FF00002F4
:10185000134BFEF743FF02460B4610461946FFF7AF
:1018600025F80346FB60F868FEF7B6FD0AA3D3E946
:101870000023FEF733FF02460B4610461946FFF7DA
:1018800015F80346BB60BB6818461037BD4680BDDF
:101890006666666666660A40B81E85EB51B89E3F6E
:1018A0000000B04080B483B000AF0346FB8000BFAF
:1018B0000C37BD4680BC704780B584B000AF03468E
:1018C000FB80FB881846FFF77BFEF86000BF1037EF
:1018D000BD4680BD80B584B000AF0346FB80FB8869
:1018E0001846FFF76DFEF86000BF1037BD4680BD9B
:1018F00080B584B000AF0346FB80FB881846FFF735
:101900005FFEF86000BF1037BD4680BD80B584B073
:1019100000AF0346FB80FB881846FFF751FEF860D6
:1019200000BF1037BD4680BD80B584B000AF034610
:10193000FB80FB881846FFF743FEF86000BF1037B6
:10194000BD4680BD80B584B000AF0346FB80FB88F8
:101950001846FFF76DFEF8600E49F868FFF7B6FA13
:101960000346002B0ED00C4B9B78DBB2002B04D12E
:1019700000F04EFF00F045FF08E000F03BFF00F0F4
:101980004EFF03E000F04BFF00F03BFF00BF1037BD
:10199000BD4680BD000020410000002080B584B01D
:1019A00000AF0346FB80FB881846FFF741FEF86056
:1019B00000BF1037BD4680BD80B584B000AF034680
:1019C000FB80FB881846FFF7FBFDF8601849F868B4
:1019D000FFF772FA0346002B16D04FF08241F868E9
:1019E000FFF774FA0346002B0ED000F039FE00F02A
:1019F0004FFE00F087FE00F0A3FE00F0BFFE00F0F7
:101A0000DBFE00F01BFF0EE000F036FE00F06AFE89
:101A100000F08CFE00F0A8FE00F0C4FE00F0E0FE36
:101A200000F01CFF00BF00BF1037BD4680BD00BFE7
:101A30000000704280B483B000AF0346FB8000BF5B
:101A40000C37BD4680BC704780B483B000AF0346FE
:101A5000FB8000BF0C37BD4680BC704780B483B0AC
:101A600000AF0346FB8000BF0C37BD4680BC70470B
:101A700080B582B000AF03463960FB803B681B88AD
:101A80009BB21846FFF70EFF3B6802331B889BB2E0
:101A90001846FFF711FF3B6804331B889BB21846BA
:101AA000FFF718FF3B6806331B889BB21846FFF709
:101AB0001FFF3B6808331B889BB21846FFF726FFC1
:101AC0003B680A331B889BB21846FFF72DFF3B6823
:101AD0000C331B889BB21846FFF734FF3B680E336C
:101AE0001B889BB21846FFF759FF3B6810331B88D1
:101AF0009BB21846FFF760FF3B6812331B889BB20E
:101B00001846FFF797FF3B6814331B889BB21846B3
:101B1000FFF79AFF3B6816331B889BB21846FFF706
:101B20009DFF00BF0837BD4680BD000080B586B070
:101B300000AF03463A60FB800B46BB8000237B610D
:101B40002FE000233B610023FB6011E0FA6813469D
:101B50005B001344DB001A463B6813447A6933F890
:101B600012301A463B6913443B61FB680133FB604A
:101B7000BB88FA689A42E9DBBB883A69B2FBF3F3A7
:101B80009BB219467869FFF761FC034619460B4A78
:101B90007B6904335B0013440A465A807B69013336
:101BA0007B61FB887A699A42CBDBFB880449184643
:101BB000FFF75EFF00BF1837BD4680BD0000002064
:101BC0000A00002080B500AF1F4B1B681E4A43F47B
:101BD000A97343F00103136001F0AEFA0121002064
:101BE00001F048FB00BF012001F0E0FA0346012BA1
:101BF000F9D11D21002001F061FC0121022001F03A
:101C000039FB00BF192001F0D1FA0346012BF9D1AD
:101C1000002001F0F1FB002001F01AFC002001F08F
:101C200001FC012001F052FE022001F0F5FC00BF92
:101C300001F008FD0346022BFAD1002001F046FE18
:101C400002F064FC00BF80BD0020024080B400AF01
:101C500000BFBD4680BC704780B400AFFEE780B4D3
:101C600000AFFEE780B400AFFEE780B400AFFEE750
:101C700080B400AF00BFBD4680BC704780B400AFE9
:101C800000BFBD4680BC704780B400AF00BFBD46FA
:101C900080BC704780B400AF00BFBD4680BC7047B9
:101CA00080B500AF2021114802F061FB0346002BF4
:101CB00019D00E4802F04FFB034618460C4B1B8808
:101CC0005A1C91B20A4A11801A46C1B2094B995462
:101CD000074B1B88B3F5807F02D1054B00221A8089
:101CE000002002F06FFF00BF80BD00BF0038014040
:101CF0000C1100200C10002080B400AF00BFBD46C6
:101D000080BC704780B500AF0121074802F0ECF9B4
:101D10000346002B05D000F0B1FD0121024802F07E
:101D2000FBF900BF80BD00BF002C014080B582B030
:101D300000AF0023FB80194B9B78DBB2012B02D153
:101D4000FB880133FB80FB882033FB80134B1B791E
:101D5000DBB2012B02D1FB880233FB800F4B5B7996
:101D6000DBB2012B02D1FB880433FB800B4B9B7948
:101D7000DBB2012B02D1FB880833FB80074BDB79F8
:101D8000DBB2012B02D1FB881033FB80FB881846A5
:101D900000F0DAFB00BF0837BD4680BD0000002020
:101DA00080B483B000AF0346FB80FB8803F00103DF
:101DB000002B03D11D4B00229A7002E01B4B012225
:101DC0009A70FB8803F00203002B03D1174B00220B
:101DD0001A7102E0154B01221A71FB8803F004030B
:101DE000002B03D1114B00225A7102E00F4B01224C
:101DF0005A71FB8803F00803002B03D10B4B002220
:101E00009A7102E0094B01229A71FB8803F01003DA
:101E1000002B03D1054B0022DA7102E0034B0122B3
:101E2000DA7100BF0C37BD4680BC7047000000204F
:101E300080B582B000AF78600B46FB70FB78002B5A
:101E400003D14D4803F0E4FC93E04C497868FFF778
:101E5000D3F90346002B07D1494B5B78DBB2194617
:101E6000484803F04FFC84E047497868FFF7C4F91D
:101E70000346002B07D1424B9B78DBB21946414801
:101E800003F040FC75E041497868FFF7B5F9034677
:101E9000002B0FD13A4B5B8B9BB21846FFF790FBA0
:101EA00003461846FEF798FA02460B46384803F0F8
:101EB00029FC5EE037497868FFF79EF90346002B5E
:101EC0000FD12F4B1B8B9BB21846FFF7B1FB03467C
:101ED0001846FEF781FA02460B462D4803F012FC25
:101EE00047E02D497868FFF787F90346002B0FD1AB
:101EF000234BDB8A9BB21846FFF79AFB0346184632
:101F0000FEF76AFA02460B46214803F0FBFB30E07D
:101F100022497868FFF770F90346002B0FD1184B60
:101F2000DB8B9BB21846FFF7E3FA03461846FEF731
:101F300053FA02460B46164803F0E4FB19E0184931
:101F40007868FFF759F90346002B0FD10C4B1B8C17
:101F50009BB21846FFF71CFB03461846FEF73CFAF7
:101F600002460B460A4803F0CDFB02E00D4803F0A1
:101F70004FFC0837BD4680BDF8790008FC790008A1
:101F800000000020047A00080C7A0008147A000887
:101F90001C7A0008247A00082C7A0008347A000899
:101FA0003C7A0008447A000880B582B000AF7860BF
:101FB0000B46FB707B681B78DBB2FA789A4204D040
:101FC0007B68FA781A70FFF7B1FE00BF0837BD468C
:101FD00080BD000080B584B000AFF8607A601A461A
:101FE0000B46FB721346BB72FB7A002B02D0BB7A06
:101FF000002B03D1A84803F00BFC96E1A749F86831
:10200000FFF7FAF80346002B0ED17B681B78302BC4
:1020100003D1A34B00225A7002E0A14B01225A7057
:10202000A04803F0F5FB80E19F49F868FFF7E4F86A
:102030000346002B33D17B681B78313B042B26D819
:1020400001A252F823F000BF5D20000867200008BD
:10205000712000087B20000885200008002193489B
:10206000FFF7A2FF17E000219148FFF79DFF12E064
:1020700000219048FFF798FF0DE000218E48FFF700
:1020800093FF08E000218D48FFF78EFF03E08248B0
:1020900003F0BEFB49E1834803F0BAFB45E1884900
:1020A000F868FFF7A9F80346002B32D17B681B784C
:1020B000313B042B25D801A252F823F0D12000088F
:1020C000DB200008E5200008EF200008F9200008C8
:1020D00001217648FFF768FF17E001217448FFF7F8
:1020E00063FF12E001217348FFF75EFF0DE001215D
:1020F0007148FFF759FF08E001217048FFF754FFCE
:1021000003E0654803F084FB0FE1664803F080FBC1
:102110000BE16C49F868FFF76FF80346002B3DD1DF
:102120007B681B78313B042B34D801A252F823F092
:102130004521000855210008652100087521000887
:1021400085210008564BDB78DBB219465E4803F068
:10215000D9FAEAE0524B1B79DBB219465A4803F030
:10216000D1FAE2E04E4B5B79DBB21946564803F0F8
:10217000C9FADAE04A4B9B79DBB21946524803F0C0
:10218000C1FAD2E0464BDB79DBB219464E4803F088
:10219000B9FACAE0404803F03BFBC6E04B49F86897
:1021A000FFF72AF80346002B18D17B681B78302BE9
:1021B00002D0312B05D009E000214548FFF7F4FE9D
:1021C00008E001214248FFF7EFFE03E0324803F048
:1021D0001FFBAAE0334803F01BFBA6E03D49F8686B
:1021E000FFF70AF80346002B40F09C807B681B78C1
:1021F000303B052B00F2928001A252F823F000BF81
:102200001922000839220008592200087922000802
:10221000DD220008FD220008214B9B8B9BB2184653
:10222000FFF7FEFA03461846FEF7D6F802460B46BD
:10223000294803F067FA78E0194B9B8A9BB218464D
:10224000FFF72EFA03461846FEF7C6F802460B467D
:10225000214803F057FA68E0114B5B8A9BB218469D
:10226000FFF77EFA03461846FEF7B6F802460B461D
:10227000194803F047FA58E0094B1B8A9BB21846ED
:10228000FFF76EFA03461846FEF7A6F802460B461D
:10229000114803F037FA48E0447A0008FC79000856
:1022A00000000020F87900084C7A000803000020A4
:1022B0000400002005000020060000200700002088
:1022C000587A0008607A0008047A00080C7A00083E
:1022D000020000206C7A00081C7A0008144BDB898D
:1022E0009BB21846FFF73CFA03461846FEF774F80F
:1022F00002460B460F4803F005FA16E00C4B9B898B
:102300009BB21846FFF72CFA03461846FEF764F80E
:1023100002460B46074803F0F5F906E0064803F0CD
:1023200077FA02E0044803F073FA1037BD4680BD27
:10233000000000201C7A0008447A000880B584B0B0
:1023400000AFB9607B600346FB731346BB73FB7B36
:10235000002B05D1BB7B1946B868FFF769FD0CE07F
:10236000FB7B012B06D13B7EB97B7A68B868FFF70F
:1023700031FE02E0034803F04BFA00BF1037BD46C0
:1023800080BD00BF447A000880B487B000AFF86019
:10239000B9601346FB800023FB820CE0FA68FB8ADD
:1023A0005B00B9680B4412881A80FB680233FB603B
:1023B000FB8A0133FB82FA8AFB889A42EED300BF84
:1023C00000BF1C37BD4680BC704780B586B000AFEB
:1023D000F860B9601346FB800023FB820EE0FB8AA5
:1023E0005B00BA6813441B881946F86801F022FCA8
:1023F000FB680233FB60FB8A0133FB82FA8AFB88AD
:102400009A42ECD300BF00BF1837BD4680BD000024
:1024100080B588B000AFF860B9601346FB8001F06A
:10242000BBFBFB6803F178433B613B699B0AFB61A3
:102430003B69C3F309035B087B837B8BC3F50073A4
:102440003B83FA883B8B9A4201D8FB883B83FB692C
:1024500003F500339B024FF400723A491846FFF728
:1024600093FF0023FB820CE07A8BFB8A1344354AEE
:1024700032F813304FF6FF72934207D1FB8A0133D3
:10248000FB82FA8A3B8B9A42EED300E000BFFA8AC5
:102490003B8B9A4226D2FB6903F500339B02184618
:1024A00001F09AFB0023FB820DE0FB8A5B00BA6817
:1024B0001A44F98A7B8B0B441188224A22F81310A4
:1024C000FB8A0133FB82FA8A3B8B9A42EDD3FB698C
:1024D00003F500339B024FF400721A491846FFF7C8
:1024E00074FF05E03B8B1A46B968F868FFF76DFF8B
:1024F000FA883B8B9A421ED0FB690133FB610023B3
:102500007B833B8B5B00BA681344BB603B8B5B00F7
:102510001A46FB681344FB60FA883B8BD31AFB8096
:10252000FB88B3F5007F03D94FF400733B838EE73C
:10253000FB883B838BE700BF01F040FB00BF2037E7
:10254000BD4680BDCC0B002080B582B000AF0346F5
:10255000FB800C4B45F255221A800A4B44F246622E
:102560005A80084AFB889380032206490648FFF7F1
:102570004FFFFB881846FFF713FC00231846083767
:10258000BD4680BDCC0F002000FC000880B582B0A5
:1025900000AF7860032212491248FFF7F5FE104B96
:1025A0001B8819460E4B5B881A460F4803F0AAF8A1
:1025B0000B4B1B8845F25522934205D1084B5B8893
:1025C00044F24662934202D04FF0FF3304E0044BE2
:1025D0009A887B681A80002318460837BD4680BD5C
:1025E000CC0F002000FC0008747A000880B582B08F
:1025F00000AF0023BB803B1D1846FFF7C7FF034613
:10260000FB80FB88002B07D03F20FFF79DFF3F2179
:10261000084803F077F808E0BB881846FFF7C0FBCE
:10262000BB881946034803F06DF800BF0837BD4664
:1026300080BD00BF8C7A000880B500AF012002F099
:1026400009FB0421054802F03BFB012002F002FBDC
:102650000421024802F042FB00BF80BD0004004894
:1026600080B500AF4FF480714FF0904002F036FB20
:10267000FFF7E2FF00BF80BD80B500AF4FF480716F
:102680004FF0904002F01CFBFFF7D6FF00BF80BD6B
:1026900080B500AF124BDB78DBB2002B04D100F029
:1026A00021F8FFF7C9FF19E04FF400614FF09040A7
:1026B00002F006FBFFF7C0FF094B9B78DBB2002B53
:1026C00006D14FF480514FF0904002F007FB05E037
:1026D0004FF480514FF0904002F0F2FA80BD00BFFD
:1026E0000000002080B500AF4FF400614FF0904033
:1026F00002F0F4FAFFF7A0FF00F091F800F081F883
:1027000000BF80BD80B500AF064B1B79DBB2002B4C
:1027100002D100F00BF803E02021034802F0D0FAC8
:1027200080BD00BF000000200004004880B500AF5D
:102730002021024802F0D2FA00BF80BD0004004808
:1027400080B500AF064B5B79DBB2002B02D100F005
:102750000BF803E01021034802F0B2FA80BD00BF7D
:10276000000000200004004880B500AF102102489E
:1027700002F0B4FA00BF80BD0004004880B500AF8D
:10278000064B9B79DBB2002B02D100F00BF803E083
:102790000821034802F094FA80BD00BF0000002029
:1027A0000004004880B500AF0821024802F096FA04
:1027B00000BF80BD0004004880B500AF074BDB7947
:1027C000DBB2002B02D100F00BF805E04FF4004122
:1027D0004FF0904002F074FA80BD00BF000000206E
:1027E00080B500AF4FF400414FF0904002F076FA10
:1027F00000BF80BD80B500AF022002F09FF900BF8E
:1028000080BD80B500AF022002F0BAF900BF80BDE4
:1028100080B500AF012002F091F900BF80BD80B506
:1028200000AF012002F0ACF900BF80BD80B500AF61
:10283000002002F0C7F900BF80BD000080B400AFE7
:10284000044B01221A80044B0A221A8000BFBD46A5
:1028500080BC7047DE0F0020DC0F002080B400AF8A
:10286000044B01221A80044B01221A8000BFBD468E
:1028700080BC7047DE0F0020DC0F002080B500AF69
:102880000B4B1B88002B10D00A4B1B8801339AB2CC
:10289000084B1A80074B1A88074B1B889A4204D3AF
:1028A000044B00221A80FFF7C1FF00BF80BD00BFAC
:1028B000DE0F0020D60F0020DC0F002080B500AF17
:1028C000FFF780F9032001F088FB4FF4E13001F0BD
:1028D0003BFF02F0C3F8254802F09AFF244802F0BB
:1028E00097FF2449244802F00DFF244802F090FF8E
:1028F00001F0B6FF01F084FF01F0E8FF02F01EF8DE
:1029000002F0FAF9FFF772FE01211D4800F000FC09
:1029100002F054FA01F04AFD1A4B1A881A4B1B8830
:102920009A4214D0174B1B881A46184B9B5C1846CA
:1029300000F06CF8134B1B8801339AB2114B1A80CC
:10294000104B1B88FF2B02D90E4B00221A8002204D
:1029500001F01EF80346002BDCD0022001F036F80F
:102960000B4A32210C20FFF7E1F8D3E7A47A0008E4
:10297000C87A000848000020E07A0008F07A0008D1
:10298000002401400E1100200C1100200C1000202A
:102990001011002080B483B000AF00237B6007E0FB
:1029A000094A7B68134400221A707B6801337B60FC
:1029B0007B680B2BF4DD054B00221A7000BF0C372F
:1029C000BD4680BC704700BFEC0F0020F80F002010
:1029D00080B483B000AF00237B6007E0094A7B68C6
:1029E000134400221A707B6801337B607B680B2BD9
:1029F000F4DD054B00221A7000BF0C37BD4680BCC9
:102A0000704700BFFC0F00200810002080B584B084
:102A100002AF0346FB715A4B1B780C2B00F2A280CD
:102A200001A252F823F000BF5D2A00087B2A0008AB
:102A3000AD2A00080F2B0008412B0008652B000869
:102A4000652B0008652B0008652B0008652B000826
:102A5000652B0008912A0008F92A0008FB79412B10
:102A600040F08280464B01221A70464B00221A70B9
:102A7000FFF790FFFFF7ACFF76E0FB79542B03D113
:102A80003F4B0B221A7076E03D4B00221A7072E029
:102A9000FB792B2B03D13A4B02221A7066E0FB79AB
:102AA0000D2B63D1364B04221A705FE0FB793F2B6C
:102AB00006D1334B0C221A70324B00221A7057E0A9
:102AC000FB793D2B06D12E4B03221A702D4B012290
:102AD0001A704DE02C4B1B785A1CD1B22A4A117047
:102AE00019462A4AFB795354274B1B780B2B3FD9A5
:102AF000234B00221A703BE0FB790D2B03D1204BB6
:102B000004221A7037E01E4B00221A7033E0FB7962
:102B10000D2B03D11A4B04221A702BE01C4B1B788F
:102B20005A1CD1B21A4A117019461A4AFB795354E9
:102B3000174B1B780B2B1DD9114B00221A7019E073
:102B4000FB790A2B0AD10F4B18780F4B1A78104BD0
:102B50001B7800930F4B0D49FFF7F0FB084B002249
:102B60001A7008E000BF06E000BF04E000BF02E00A
:102B700000BF00E000BF00BF0837BD4680BD00BFFA
:102B8000E80F00200910002008100020FC0F002092
:102B9000F80F0020EC0F002080B483B000AF786005
:102BA0000B46FB70FB7803F00103D9B27A68936897
:102BB00061F30003936000BF0C37BD4680BC7047D3
:102BC00080B483B000AF78607B6800221A707B68A5
:102BD00000225A707B6800229A707B680122DA70AA
:102BE00000BF0C37BD4680BC704780B483B000AFD7
:102BF000786039603B681B7803F00103D9B27A68CA
:102C0000536861F3082353603B685B7803F001036A
:102C1000D9B27A68936861F3410393603B689B780B
:102C200003F00103D9B27A68936861F3CB23936010
:102C30003B68DB78013BDBB203F00F03D9B27A6863
:102C4000D36A61F31753D36200BF0C37BD4680BC13
:102C5000704780B483B000AF78600B46FB70FB78A0
:102C600003F00103D9B27A68936861F30823936093
:102C700000BF0C37BD4680BC704780B483B000AF46
:102C800078607A68936843F00803936000BF0C375C
:102C9000BD4680BC704780B483B000AF78607B686D
:102CA0009B68C3F3C003DBB2002B01D0012300E01B
:102CB000002318460C37BD4680BC704780B483B0F3
:102CC00000AF78607A68936843F00403936000BFB4
:102CD0000C37BD4680BC704780B483B000AF7860CD
:102CE0007B689B68C3F38003DBB2002B01D0012318
:102CF00000E0002318460C37BD4680BC704700003A
:102D000080B483B000AF7860084611461A46034687
:102D1000FB700B46BB7013467B70FB78112B00F2E7
:102D2000DB8001A252F823F0712D0008852D0008E8
:102D3000992D0008AD2D0008C12D0008D52D0008E3
:102D4000E92D0008FD2D0008112E0008252E000891
:102D5000392E00084D2E0008612E0008752E00083F
:102D6000892E00089D2E0008B12E0008C52E0008EF
:102D70007B7803F00703D9B27A68136961F3020321
:102D80001361AAE07B7803F00703D9B27A6813696C
:102D900061F3C5031361A0E07B7803F00703D9B2A8
:102DA0007A68136961F38813136196E07B7803F006
:102DB0000703D9B27A68136961F34B2313618CE07E
:102DC0007B7803F00703D9B27A68136961F30E3395
:102DD000136182E07B7803F00703D9B27A68136944
:102DE00061F3D133136178E07B7803F00703D9B244
:102DF0007A68136961F3944313616EE07B7803F0A2
:102E00000703D9B27A68136961F35753136164E019
:102E10007B7803F00703D9B27A68136961F31A6308
:102E200013615AE07B7803F00703D9B27A6813691B
:102E300061F3DD63136150E07B7803F00703D9B2DF
:102E40007A68D36861F30203D36046E07B7803F0CD
:102E50000703D9B27A68D36861F3C503D3603CE055
:102E60007B7803F00703D9B27A68D36861F38813DB
:102E7000D36032E07B7803F00703D9B27A68D36875
:102E800061F34B23D36028E07B7803F00703D9B2CA
:102E90007A68D36861F30E33D3601EE07B7803F069
:102EA0000703D9B27A68D36861F3D133D36014E0F1
:102EB0007B7803F00703D9B27A68D36861F394434F
:102EC000D3600AE07B7803F00703D9B27A68D3684D
:102ED00061F35753D36000E000BFBB78013B0F2B79
:102EE00000F2C48001A252F823F000BF2D2F000889
:102EF000412F0008552F0008692F00087D2F00087A
:102F0000912F0008A52F0008B92F0008CD2F000829
:102F1000E12F0008F52F0008093000081D300008D7
:102F2000313000084530000859300008FB7803F0C4
:102F30001F03D9B27A68536B61F30403536396E0BD
:102F4000FB7803F01F03D9B27A68536B61F349131E
:102F500053638CE0FB7803F01F03D9B27A68536B9C
:102F600061F38E23536382E0FB7803F01F03D9B231
:102F70007A68536B61F3D333536378E0FB7803F0E3
:102F80001F03D9B27A68536B61F3185353636EE031
:102F9000FB7803F01F03D9B27A68536B61F35D636A
:102FA000536364E0FB7803F01F03D9B27A68136BB4
:102FB00061F3040313635AE0FB7803F01F03D9B2F3
:102FC0007A68136B61F34913136350E0FB7803F0E5
:102FD0001F03D9B27A68136B61F38E23136346E043
:102FE000FB7803F01F03D9B27A68136B61F3D33314
:102FF00013633CE0FB7803F01F03D9B27A68136BCC
:1030000061F31853136332E0FB7803F01F03D9B266
:103010007A68136B61F35D63136328E0FB7803F058
:103020001F03D9B27A68D36A61F30403D3621EE046
:10303000FB7803F01F03D9B27A68D36A61F34913AE
:10304000D36214E0FB7803F01F03D9B27A68D36A25
:1030500061F38E23D3620AE0FB7803F01F03D9B239
:103060007A68D36A61F3D333D36200E000BF00BF54
:103070000C37BD4680BC704780B483B000AF786029
:103080000B46FB701346BB70FB78072B0ED97A6892
:10309000936843F000739360FB7803F00703D9B2A1
:1030A0007A68936861F3534393600DE07A6893689C
:1030B0006FF359639360FB7803F00703D9B27A6822
:1030C000936861F353439360BB7803F00103D9B273
:1030D0007A68936861F31453936000BF0C37BD4660
:1030E00080BC704780B483B000AF0346FB71074AD1
:1030F000FB7903F00103D9B2936861F3D75393606E
:1031000000BF0C37BD4680BC704700BF00240140A3
:1031100080B483B000AF78600B46FB70FB7803F09F
:103120000103D9B27A68936861F39653936000BF44
:103130000C37BD4680BC704780B400AF1A4A136894
:1031400043F00103136000BF174B1B68C3F3400338
:10315000DBB2012BF8D1144A53686FF301035360BB
:1031600000BF114B5B68C3F38103DBB2002BF8D1C6
:103170000D4B1B680C4A23F0867323F480331360D5
:10318000094B00225A60084B41F61072DA62064B76
:103190004FF480121A63044B4FF41F029A6000BF71
:1031A000BD4680BC704700BF0010024080B485B0AF
:1031B00000AF78600023FB737B681B0C03F1804336
:1031C00003F504331A687B6803F01F03012101FA39
:1031D00003F31A407B6803F01F03012101FA03F394
:1031E0009A4202D00023FB7301E00123FB73FB7BB7
:1031F00018461437BD4680BC704780B483B000AF1A
:1032000078600B46FB70FB78012B16D17B681B0C9A
:1032100003F1804303F5043319687B6803F01F034F
:1032200001229A407B681B0C03F1804303F50433B1
:10323000184641EA0203036017E07B681B0C03F1A8
:10324000804303F5043319687B6803F01F030122F0
:1032500002FA03F3DA437B681B0C03F1804303F5A6
:103260000433184601EA0203036000BF0C37BD4671
:1032700080BC704780B483B000AF03460A46FB7140
:103280001346BB71FB79042B3ED801A252F823F000
:10329000A5320008B9320008CD320008E13200083A
:1032A000F53200081B4ABB7903F00103D9B2136859
:1032B00061F30003136028E0164ABB7903F00103B1
:1032C000D9B2136861F3104313601EE0114ABB7951
:1032D00003F00103D9B2136861F31863136014E0BB
:1032E0000C4ABB7903F00103D9B2136A61F30003FE
:1032F00013620AE0074ABB7903F00103D9B2536AAB
:1033000061F30003536200E000BF00BF0C37BD460D
:1033100080BC70470010024080B483B000AF78607A
:103320007B68314A934259D87B68304A934223D212
:103330007B68B3F1081F1BD27B68B3F5002F4DD318
:103340007B68A3F50023072B48D801A252F823F08D
:1033500095330008A1330008AD330008B9330008E5
:10336000C5330008DD330008DD330008D133000821
:103370007B681F4A934231D11E4A536A43F08073DF
:10338000536200BF1B4B5B6AC3F30063DBB2012BCC
:10339000F8D024E0174A936843F4803393601EE02A
:1033A000144A936843F40033936018E0114A936819
:1033B00043F48023936012E00E4A936843F40023A1
:1033C00093600CE00B4A936843F48013936006E02B
:1033D000084A936843F40003936000E000BF00BF15
:1033E0000C37BD4680BC70471F0024001A00240023
:1033F000180024000010024080B483B000AF0346E0
:10340000FB71074AFB7903F00F03D9B2536861F3EC
:103410000713536000BF0C37BD4680BC704700BF28
:103420000010024080B483B000AF0346FB71074A2E
:10343000FB7903F00703D9B2536861F30A235360A1
:1034400000BF0C37BD4680BC704700BF0010024073
:1034500080B483B000AF0346FB71074AFB7903F0E9
:103460000703D9B2536861F3CD23536000BF0C3713
:10347000BD4680BC704700BF0010024080B483B0DE
:1034800000AF0346FB710C4AFB7903F00303D9B28A
:10349000536861F38F335360FB799B08DBB2064AB4
:1034A00003F00103D9B2536861F31C73536000BF8A
:1034B0000C37BD4680BC70470010024080B485B018
:1034C00000AF03460A46FB711346BB710023FB6045
:1034D0000023FB72FB79002B07D1404A53686FF33E
:1034E000104353603E4BFB6016E03C4A536843F484
:1034F00080335360FB79012B07D13A4BFB60374A8D
:1035000053686FF35143536006E0354BFB60334A19
:10351000536843F400335360FB68334A934206D93F
:10352000FB68324A934202D80023FB7235E0FB6805
:103530002F4A934206D9FB682E4A934202D80123B0
:10354000FB722AE0FB682C4A934206D9FB682B4A9F
:10355000934202D80223FB721FE0FB68284A934281
:1035600006D9FB68274A934202D80323FB7214E072
:10357000FB68254A934206D9FB68244A934202D845
:103580000423FB7209E0FB68214A934205D9FB68DA
:10359000204A934201D80523FB72104ABB7903F0FD
:1035A0000F03D9B2536861F395435360BB791B1184
:1035B0000A4A03F00303D9B2536861F35E735360A0
:1035C000064AFB7A03F00703D9B2D36A61F31A63A0
:1035D000D36200BF1437BD4680BC70470010024064
:1035E00000093D0000127A0060823B003F4B4C0016
:1035F00080584F000F5E5F00943577000F1B7F00EF
:10360000101B7F001FBCBE00286BEE002FD73D01B2
:1036100030D73D01D7E9DC0180B483B000AF034669
:10362000FB71074AFB7903F00303D9B2536861F3D6
:103630000103536000BF0C37BD4680BC704700BF1C
:103640000010024080B400AF044B5B68C3F38103F9
:10365000DBB21846BD4680BC704700BF0010024078
:103660002DE9B04F8EB000AFF86000237B630023DC
:10367000FB620023BB6200237B6200233B620023CA
:103680003B630023FB610023BB6100237B61FFF7E9
:10369000D9FF0346FB74FB7C022B21D0022B00F3E5
:1036A000AE80002B02D0012B16D0A8E07F4B5B6DC3
:1036B000C3F34023DBB2002B0AD07C4B1B6BC3F35C
:1036C0004063DBB2002B03D0FB68794A1A609AE0B2
:1036D000FB68784A1A6096E0FB68764A1A6092E0C6
:1036E000724B5B68C3F30043DBB2BB626F4BDB6AB8
:1036F000C3F3C073DBB2002B3AD16C4B5B68C3F3EE
:103700008343DBB27B63694B5B68C3F34173DBB21A
:10371000FB62FB6A002B02D17B6B0F2B06D1FB6A8D
:103720001A017B6B134401337B6302E07B6B023332
:103730007B63BB6A002B06D17B6B5F4A03FB02F203
:10374000FB681A605FE0594B5B68C3F34043DBB230
:10375000002B06D07B6B584A03FB02F2FB681A6011
:1037600051E07B6B534A03FB02F2FB681A604AE0AC
:103770004E4BDB6AC3F30313DBB2FB614B4BDB6ADB
:10378000C3F308239BB2BB61484BDB6AC3F302035C
:10379000DBB27B61BB6A002B02D1474B3B630BE082
:1037A000424B5B68C3F34043DBB2002B02D0424B79
:1037B0003B6301E03F4B3B633B6B00229A469346E1
:1037C000BB6900229846914608FB0BF20AFB09F3FD
:1037D0001344AAFB08452B441D46FA697B6902FA8B
:1037E00003F300223B607A60D7E900232046294694
:1037F000FDF780FB02460B46FB681A6003E0FB689E
:103800002C4A1A6000BF294B5B68C3F30313DBB279
:103810007B622A4A7B6A13441B783B62FB681A6806
:103820003B6ADA40FB685A60204B5B68C3F30223B3
:10383000DBB27B62224A7B6A13441B783B62FB68E3
:103840005A683B6ADA40FB68DA60184B5B68C3F37E
:10385000C223DBB27B621B4A7B6A13441B783B6248
:10386000FB685A683B6ADA40FB689A600F4B5B68FA
:10387000C3F30073DBB27B627B6A9B000B4A526826
:10388000C2F38132D2B213437B620F4A7B6A134484
:103890001B783B62FB689A683B6AB2FBF3F2FB68F9
:1038A0001A6100BF3837BD46BDE8B08F0010024036
:1038B000006CDC0200127A0000093D00147B000855
:1038C000247B00082C7B0008347B000880B483B084
:1038D00000AF0346FB71FB79012B05D1074A536DFD
:1038E00043F03003536504E0044A536D6FF305134E
:1038F000536500BF0C37BD4680BC704700100240C6
:1039000080B485B000AF78600023FB607A681368EC
:103910006FF3000313607B6800221A607B6800224B
:103920005A607B6800229A607B680022DA607B68BC
:10393000FB600B4B5B68FA68D2B2083A0949A1FBFD
:103940000212120992000F2101FA02F21146044AF2
:103950000B43536000BF1437BD4680BC704700BFA7
:1039600000000240CDCCCCCC80B483B000AF7860F6
:103970000B46FB70FB7803F00103D9B27A68136839
:1039800061F30003136000BF0C37BD4680BC704775
:1039900080B485B000AF78600023FB730023BB6068
:1039A000094B1B68BB60BA687B681340002B02D0D0
:1039B0000123FB7301E00023FB73FB7B18461437E4
:1039C000BD4680BC704700BF0000024080B483B099
:1039D00000AF7860034A7B68536000BF0C37BD4678
:1039E00080BC70470000024080B483B000AF7860B4
:1039F0007B6800221A607B6800225A607B68002284
:103A00001A817B6800225A817B6800221A737B68C6
:103A100000225A737B6800229A737B680022DA7353
:103A20007B6800221A747B6800225A7400BF0C372E
:103A3000BD4680BC704780B483B000AF7860396009
:103A40007B681A684BF6EF7313407A6813607B68E3
:103A50001B683A6812891A437B681A603B685B7C72
:103A600003F00303D9B27A68136861F30D3313606E
:103A70003B68DB7B03F00303D9B27A68136861F318
:103A80008B2313603B689B7B03F00303D9B27A68F6
:103A9000136861F3092313603B685B7B03F0010348
:103AA000D9B27A68136861F3C71313603B681B7B54
:103AB00003F00103D9B27A68136861F386131360C7
:103AC0003B681B7C03F00103D9B27A68136861F389
:103AD000451313603B685B891A467B685A603B68F4
:103AE0001A687B689A603B685A687B68DA6000BF36
:103AF0000C37BD4680BC704780B483B000AF032351
:103B0000FB71134BDB68C3F30003DBB2002B02D065
:103B10000023FB7115E00E4BDB68C3F38003DBB2BF
:103B2000002B02D00123FB710BE0094BDB68C3F3D0
:103B30000013DBB2002B02D00223FB7101E0032350
:103B4000FB71FB7918460C37BD4680BC704700BF3F
:103B50000020024080B584B000AF78600323FB737F
:103B6000FFF7CAFF0346FB7306E0FFF7C5FF0346F6
:103B7000FB737B68013B7B60FB7B002B02D17B6886
:103B8000002BF2D17B68002B01D10423FB73FB7B5C
:103B900018461037BD4680BD80B400AF044B054ABF
:103BA0005A60034B044A5A6000BFBD4680BC704750
:103BB0000020024023016745AB89EFCD80B400AF00
:103BC000044A136943F08003136100BFBD4680BC03
:103BD000704700BF0020024080B584B000AF78601D
:103BE0000323FB734FF08040FFF7B4FF0346FB73E2
:103BF000FB7B032B17D10E4A136943F002031361B9
:103C00000B4A7B6853610A4A136943F0400313610E
:103C10004FF08040FFF79EFF0346FB73044A136991
:103C20006FF341031361FB7B18461037BD4680BD1F
:103C30000020024080B584B000AF78600B467B80E6
:103C40000323FB734FF48010FFF784FF0346FB73DD
:103C5000FB7B032B12D10C4A136943F00103136160
:103C60007B687A881A804FF48010FFF773FF034651
:103C7000FB73054A13696FF300031361FB7B18465E
:103C80001037BD4680BD00BF0020024080B485B023
:103C900000AF786039600023BB813B681B68FB8103
:103CA00064E0FB8903F00103002B59D07B681B689B
:103CB000BA895200032101FA02F2D2431A407B680A
:103CC0001A607B681B683A6892791146BA8952007B
:103CD00001FA02F21A437B681A607B685B68BA8952
:103CE000012101FA02F2D2431A407B685A607B68D4
:103CF0005B683A6812791146BA8901FA02F21A43EE
:103D00007B685A607B689B68BA895200032101FA7C
:103D100002F2D2431A407B689A607B689B683A68DB
:103D2000D2791146BA89520001FA02F21A437B682D
:103D30009A607B68DB68BA895200032101FA02F2BB
:103D4000D2431A407B68DA607B68DB683A68527954
:103D50001146BA89520001FA02F21A437B68DA600E
:103D6000FB895B08FB81BB890133BB81FB89002B8D
:103D700097D100BF00BF1437BD4680BC704780B4E8
:103D800083B000AF78607B684FF6FF721A607B6883
:103D900000229A717B6800221A717B6800225A7196
:103DA0007B680122DA7100BF0C37BD4680BC7047CA
:103DB00080B485B000AF78600B46FB701346BB70D3
:103DC0000023FB600023BB60BA78FB7803F0070395
:103DD0009B0002FA03F3FB60FB78DB08DBB2002BED
:103DE00015D07B685A6AFB7803F007039B000F210C
:103DF00001FA03F3DB431A407B685A627B685B6A13
:103E0000FA681343BB607B68BA685A6214E07B6847
:103E10001A6AFB7803F007039B000F2101FA03F3F2
:103E2000DB431A407B681A627B681B6AFA6813439B
:103E3000BB607B68BA681A6200BF1437BD4680BC9D
:103E40007047000080B485B000AF78607B6803F0F5
:103E50000703FB600C4BDB68BB60BA684FF6FF03DF
:103E60001340BB60FB681A02BB68134343F0BF6397
:103E700043F40033BB60044ABB68D36000BF14370F
:103E8000BD4680BC704700BF00ED00E080B400AFCD
:103E9000044BDB681B0A03F007031846BD4680BCD1
:103EA000704700BF00ED00E080B483B000AF034670
:103EB000FB7197F90730002B0BDBFB7903F01F0236
:103EC000064997F907305B09012000FA02F241F830
:103ED000232000BF0C37BD4680BC704700E100E0E6
:103EE00080B483B000AF03463960FB7197F90730A7
:103EF000002B0ADB3B68DAB20C4997F90730120154
:103F0000D2B20B4483F800230AE03B68DAB20849D6
:103F1000FB7903F00F03043B1201D2B20B441A7673
:103F200000BF0C37BD4680BC704700BF00E100E019
:103F300000ED00E080B489B000AFF860B9607A604D
:103F4000FB6803F00703FB61FB69C3F10703042B64
:103F500028BF0423BB61FB690433062B02D9FB692C
:103F6000033B00E000237B614FF0FF32BB6902FAA4
:103F700003F3DA43BB681A407B699A404FF0FF3184
:103F80007B6901FA03F3D9437B680B40134318465E
:103F90002437BD4680BC704780B586B000AF03466D
:103FA000B9607A60FB7300237B61FFF76FFF034604
:103FB0007A68B9681846FFF7BDFF786197F90F3046
:103FC00079691846FFF78CFF97F90F301846FFF70D
:103FD0006BFF00BF1837BD4680BD80B582B000AF13
:103FE0000346FB71FB791846FFF72CFF00BF08372B
:103FF000BD4680BD80B483B000AF0346FB71FB7942
:10400000042B06D1084B1B68074A43F004031360D6
:1040100005E0054B1B68044A23F00403136000BF4E
:104020000C37BD4680BC704710E000E080B483B020
:1040300000AF78600B46FB70FB7803F00103D9B248
:104040007A68136861F30003136000BF0C37BD4644
:1040500080BC704780B485B000AFF860B9607A600A
:10406000FB68BA68DA62FB687A689A62FA68536930
:1040700043F00103536100BF1437BD4680BC704755
:1040800080B483B000AF78600B46FB70FB7803F020
:104090000703D9B27A68136861F30613136000BF8F
:1040A0000C37BD4680BC704780B485B000AFF86067
:1040B000B9601346FB71FB79012B06D1FB68DA6806
:1040C000BB681A43FB68DA6009E0FB79002B06D174
:1040D000FB68DA68BB68DB431A40FB68DA6000BF44
:1040E0001437BD4680BC704780B485B000AF78609F
:1040F00039600023FB737B681A693B681340002B0F
:1041000002D00123FB7301E00023FB73FB7B184605
:104110001437BD4680BC704780B483B000AF786070
:1041200039603B68DA437B681A6100BF0C37BD46D3
:1041300080BC704780B58CB000AFF860B9601146A4
:104140001A460B46FB711346BB7107F11403184660
:10415000FFF786FAFB68244A934202D1FB69FB62AF
:1041600001E03B6AFB62FA6A13469B0013445B0062
:104170001A46BB68B2FBF3F3BB62B96A1B4BA3FBE5
:104180000123DA0813469B0013445B00CA1A042A71
:1041900006D8BB6A154AA2FB0323DB08BB6206E014
:1041A000BB6A124AA2FB0323DB080133BB62BB6A72
:1041B00099B2FA68936861F30F039360FB7903F097
:1041C0000103D9B2FA68D36861F30C33D360BB79C9
:1041D00003F00303D9B2FA68136961F30D33136175
:1041E00000BF3037BD4680BD00380140CDCCCCCCBF
:1041F00080B483B000AF78600B46FB70FB78002B77
:104200000AD17A68D3686FF34923D3607A68D36898
:104210006FF38A23D3601AE0FB78012B0AD17A6806
:10422000D3686FF34923D3607A68D36843F480631B
:10423000D3600CE0FB78022B09D17A68D36843F491
:104240000073D3607A68D36843F48063D36000BF9F
:104250000C37BD4680BC704780B483B000AF786037
:104260000B46FB70FB7803F00103D9B27A68D36880
:1042700061F34D33D36000BF0C37BD4680BC70473F
:1042800080B483B000AF78600B46FB70FB7803F01E
:104290000103D9B27A68D36861F3C303D36000BF66
:1042A0000C37BD4680BC704780B483B000AF7860E7
:1042B0000B46FB70FB7803F00103D9B27A68D36830
:1042C00061F38203D36000BF0C37BD4680BC7047EA
:1042D00080B485B000AFF860B9601346FB71FB791C
:1042E000012B11D1BB681A0CFB6813441A68BB6818
:1042F00003F01F03012101FA03F3B968080CF96800
:10430000014413430B6011E0BB681A0CFB681344B3
:104310001A68BB6803F01F03012101FA03F3DB43B2
:10432000B968080CF968014413400B6000BF1437EA
:10433000BD4680BC704780B483B000AF78600B4648
:104340007B807B88C3F308027B685A6000BF0C3710
:10435000BD4680BC704780B483B000AF78607B6896
:104360005B689BB218460C37BD4680BC704780B472
:1043700083B000AF786039607B681A683B6813408F
:10438000002B01D0012300E0002318460C37BD4666
:1043900080BC704780B400AF034B4CF6CC421A602F
:1043A00000BFBD4680BC70470030004080B400AF05
:1043B000034B4AF6AA221A6000BFBD4680BC704774
:1043C0000030004080B483B000AF0346FB80044A55
:1043D000FB88936000BF0C37BD4680BC704700BFB0
:1043E0000030004080B483B000AF0346FB71074A41
:1043F000FB7903F00703D9B2536861F302035360FA
:1044000000BF0C37BD4680BC704700BF0030004085
:1044100080B483B000AF0346FB71FB79002B03D15E
:10442000064B00221A6003E0044B45F255521A6015
:1044300000BF0C37BD4680BC704700BF0030004055
:10444000002103E00B4B5B58435004310A480B4BEF
:1044500042189A42F6D30A4A02E0002342F8043B8B
:10446000084B9A42F9D300F011F800F0C3FCFEF7B4
:1044700025FA70477C7F0008000000202002002001
:1044800020020020F8150020FEE7000080B400AFF5
:104490001C4A136843F00103136000BF194B1B68EB
:1044A000C3F34003DBB2012BF8D1164A53686FF314
:1044B0000103536000BF134B5B68C3F38103DBB29E
:1044C000002BF8D10F4B1B680E4A23F0867323F4A0
:1044D000803313600B4B00225A600A4B41F6107276
:1044E000DA62084B4FF480121A63064B4FF41F0236
:1044F0009A60054B4FF000629A6000BFBD4680BCD9
:10450000704700BF0010024000ED00E02DE9B04F01
:104510008CB000AF0023FB6200237B6200233B6270
:104520000023FB610023BB610023BB6200237B618E
:1045300000233B610023FB60FFF784F80346FB7216
:10454000FB7A022B21D0022B00F3AE80002B02D08D
:10455000012B16D0A8E0624B5B6DC3F34023DBB2A6
:10456000002B0AD05E4B1B6BC3F34063DBB2002B06
:1045700003D05C4B5C4A1A609AE05A4B5B4A1A6063
:1045800096E0584B594A1A6092E0554B5B68C3F36A
:104590000043DBB23B62524BDB6AC3F3C073DBB256
:1045A000002B3AD14E4B5B68C3F38343DBB2FB6213
:1045B0004B4B5B68C3F34173DBB27B627B6A002BBE
:1045C00002D1FB6A0F2B06D17B6A1A01FB6A1344E6
:1045D0000133FB6202E0FB6A0233FB623B6A002BA1
:1045E00006D1FB6A424A02FB03F33E4A13605FE0D6
:1045F0003B4B5B68C3F34043DBB2002B06D0FB6A46
:104600003B4A02FB03F3374A136051E0FB6A374A27
:1046100002FB03F3334A13604AE0314BDB6AC3F316
:104620000313DBB27B612E4BDB6AC3F308239BB21F
:104630003B612B4BDB6AC3F30203DBB2FB603B6ADB
:10464000002B02D12A4BBB620BE0254B5B68C3F306
:104650004043DBB2002B02D0254BBB6201E0234B71
:10466000BB62BB6A00229A4693463B690022984689
:10467000914608FB0BF20AFB09F31344AAFB084519
:104680002B441D467A69FB6802FA03F300223B6063
:104690007A60D7E9002320462946FCF72BFC024626
:1046A0000B46104B1A6003E00E4B104A1A6000BF15
:1046B0000B4B5B68C3F30313DBB2FB610D4AFB6971
:1046C00013441B78BB61074B1A68BB6922FA03F3DA
:1046D000044A136000BF3037BD46BDE8B08F00BF4D
:1046E0000010024024000020006CDC0200127A005E
:1046F00000093D003C7B000880B586B000AFF86043
:10470000B9607A6000237B6113E000BF80210D480F
:10471000FFF72DFE0346002BF8D07B69BA681344DF
:104720001B789BB219460748FFF705FE7B690133EA
:104730007B617A697B689A42E7DB7B6818461837A9
:10474000BD4680BD0038014080B584B000AF7860C0
:1047500001212748FEF751FD01212648FEF74DFDB6
:1047600007F108031846FFF70AFB0123FB73002338
:104770003B730223BB734FF4C063BB6000237B73A6
:1047800007F1080319464FF09040FFF77FFA012226
:1047900009214FF09040FFF70BFB01220A214FF057
:1047A0009040FFF705FB0023002279681248FFF7CD
:1047B000C1FC00211048FFF71BFD01210E48FFF747
:1047C0005FFD01210C48FFF76FFD01220B490A48EC
:1047D000FFF77EFD01210848FFF73EFD0022002182
:1047E0001B20FFF7D9FB00BF1037BD4680BD00BFBF
:1047F0000E001800110014000038014005000C00E4
:1048000080B582B000AF01211248FEF7F6FC3B46AE
:104810001846FFF7B4FA0323BB71FF233B603B4606
:1048200019464FF09040FFF731FA01210A48FEF790
:10483000E4FC3B461846FFF7A2FA0323BB710323AF
:104840003B603B4619460548FFF720FA00BF083792
:10485000BD4680BD11001400120014000004004881
:1048600080B500AF1548FEF7FBFE01211448FEF7A6
:10487000C4FC124B5B68134AA2FB03235B0B013B96
:104880001A4640F2E7311048FFF7E4FB00210E48DA
:10489000FFF7F6FB012201210B48FFF705FC03207F
:1048A000FFF79BFB002200210D20FFF775FB012184
:1048B0000548FFF7BBFB00BF80BD00BFC815002047
:1048C0000B0018005917B7D1002C014080B586B0F5
:1048D00000AF01214FF4A010FEF78FFC1448FFF742
:1048E0000FF83B1D1846FFF77FF84FF41673FB8156
:1048F0000023BB810F4BBB600123FB7401237B743E
:104900000D4B7B600123BB7400233B7402237B753A
:1049100001233B753B1D19460548FFF78CF8012123
:104920000348FFF721F800BF1837BD4680BD00BF20
:1049300008000240101100204C24014080B582B0D4
:1049400000AF01214348FEF758FC0720FEF796FD13
:104950003B1D1846FEF734F901233B7101237B719F
:104960000023BB710C23FB713B1D19463A48FEF72F
:104970003CF90723012200213748FEF7C1F907233C
:10498000022201213448FEF7BBF90723032202214A
:104990003148FEF7B5F90723042203212E48FEF71C
:1049A000AFF90723052204212B48FEF7A9F90723B5
:1049B000062205212848FEF7A3F90723072206212E
:1049C0002548FEF79DF90723082207212248FEF714
:1049D00097F90723092208211F48FEF791F90723B9
:1049E0000A2209211C48FEF78BF907230B2210210C
:1049F0001948FEF785F907230C2211211648FEF706
:104A00007FF9012207211448FEF736FB01211248E5
:104A1000FEF71FF90120FEF765FB01210E48FEF7A6
:104A2000BBF80D48FEF729F900BF0B48FEF733F934
:104A30000346002BF9D10848FEF740F900BF0648AD
:104A4000FEF74AF90346002BF9D100BF00BF083733
:104A5000BD4680BD090018000024014080B500AFAC
:104A600000F0D8F8002000F011F8012000F00EF856
:104A7000022000F00BF8002000F082F8012000F086
:104A80007FF8022000F07CF800BF80BD80B584B0C4
:104A900000AF0346FB71FB79134A52F82330012122
:104AA0001846FEF7AAFB07F108031846FFF767F957
:104AB0000123FB7300233B730123BB73FB790B4A78
:104AC00032F81330BB6000237B73FB79084A52F83D
:104AD000233007F1080211461846FFF7D7F800BF48
:104AE0001037BD4680BD00BF3C00002034000020D0
:104AF0002800002080B586B000AFF8600B467A60D1
:104B00007B810121F868FEF778FB07F11003184656
:104B1000FFF735F90123FB7500233B750123BB75B6
:104B20007B893B6100237B7507F110031946786888
:104B3000FFF7ACF800BF1837BD4680BD80B483B026
:104B400000AF0346FB71FB79022B10D8FB790A4AB0
:104B500032F81330002B0BD0FB79074A32F81310D0
:104B6000FB79064A52F823300A469A6100E000BFFA
:104B70000C37BD4680BC7047340000202800002060
:104B800080B483B000AF0346FB71FB79022B10D8D1
:104B9000FB790A4A32F81330002B0BD0FB79074A15
:104BA00032F81310FB79064A52F823300A469A620B
:104BB00000E000BF0C37BD4680BC704734000020C9
:104BC0002800002080B483B000AF0346FB71FB795E
:104BD000022B16D8FB790D4A32F81330002B11D076
:104BE000FB790B4A52F823305A69FB79074931F8AF
:104BF00013301846FB79064951F8233042405A6178
:104C000000E000BF0C37BD4680BC70473400002078
:104C10002800002080B500AF0420FFF7EBF9094B16
:104C20001B68094AA2FB03239B0C084A1360074B2D
:104C30001B684FF47A7202FB03F3054A136000BF4E
:104C400080BD00BF2400002083DE1B43DC15002054
:104C5000E015002080B485B000AF78600023FB60D1
:104C6000154B1B6815497A6802FB03F34B60134B25
:104C700000229A60114B1B68104A43F00103136035
:104C80000E4B1B68FB60FB6803F00103002B04D094
:104C9000FB6803F48033002BF2D0084B1B68074AF3
:104CA00023F001031360054B00229A6000BF143704
:104CB000BD4680BC704700BFDC15002010E000E05E
:104CC00080B483B000AF78600B467B807A887B68C5
:104CD0009A6100BF0C37BD4680BC704780B483B07A
:104CE00000AF78600B467B807A887B689A6200BF51
:104CF0000C37BD4680BC704780B500AF2C4A2021E0
:104D00002C48FFF7F7FE20212948FFF7E7FF284A44
:104D100010212848FFF7EEFE10212548FFF7DEFF9F
:104D2000234A08212348FFF7E5FE08212048FFF722
:104D3000D5FF4FF090424FF400411F48FFF7DAFED5
:104D40004FF400414FF09040FFF7C8FF4FF0904202
:104D50004FF480511848FFF7CDFE4FF480514FF0CB
:104D60009040FFF7BBFF4FF090424FF400611248B4
:104D7000FFF7C0FE4FF400614FF09040FFF7AEFF29
:104D80004FF090424FF480710B48FFF7B3FE4FF4A1
:104D900080714FF09040FFF793FF054A04210548CA
:104DA000FFF7A8FE04210248FFF798FF00BF80BD6F
:104DB00000040048120014001100140080B500AF78
:104DC0000B48FEF7F3F90346002B02D00848FEF724
:104DD000A3FA0120FFF71CFB0120FFF703FB40F6BD
:104DE000B730FFF7EFFAFFF7D5FA00BF80BD00BF7D
:104DF0001D00240070B50D4D0D4C641BA410002641
:104E0000A64209D10B4D0C4C02F0E8FD641BA41026
:104E10000026A64205D170BD55F8043B98470136DF
:104E2000EEE755F8043B98470136F2E7747F000837
:104E3000747F0008747F0008787F000802440346EE
:104E4000934200D1704703F8011BF9E72DE9F047C1
:104E500088B0002B1F461446B8BF03F10043129AD6
:104E6000109DDDF84CA0B6BF1F4600232D23137004
:104E7000149B23F02008B8F1460F05D0B8F1450F78
:104E800000D10135022300E0032307AA049206AAF9
:104E9000CDE902A2CDE9003522463B4600F008FEEE
:104EA000B8F1470F064602D1119BDB0722D5B8F1B6
:104EB000460F06EB050910D13378302B0AD10022BA
:104EC000002320463946FCF751FA18B9C5F101050F
:104ED000CAF80050DAF80030994400220023204636
:104EE0003946FCF743FA08B1CDF81C903022079BF5
:104EF0004B4507D3079B159A9B1B3046136008B0A0
:104F0000BDE8F087591C07911A70F0E7F7B5034622
:104F10000029B8BF494203F8022BB4BF2D222B222F
:104F2000092942702ADD0DF10704A4460A27A64686
:104F30000A4691FBF7F607FB16153035632A04F194
:104F4000FF340EF8015C3146F1DC3031AEF1020580
:104F500004F8011C441C294661450AD30DF10902DD
:104F6000A2EB0E02654588BF00221344181A03B055
:104F7000F0BD11F8012B04F8012FEDE7302330319B
:104F80008370C170031DF1E72DE9F04F91B00C461D
:104F9000DDF8688016461F46054601F02BFD0368C4
:104FA00009931846FCF732F900230E93D8F8003025
:104FB0000A90073323F0070303F1080294F81890CE
:104FC000D4F800B0C8F80020D3E90023C4E91223C4
:104FD000D4E9128A2AF000430B930B999C4B4FF0B3
:104FE000FF324046FCF7F4F970BB994B0B994FF038
:104FF000FF324046FCF7CEF930BB0022002340468A
:105000005146FCF7BDF910B12D2384F84330914B84
:105010009148B9F1470F94BF984680460323236116
:105020002BF0040323604FF0000A009733460FAAC9
:105030002146284600F0D2F9013040F08F804FF031
:10504000FF3011B0BDE8F08F42465346404651460E
:10505000FCF7BEF940B1BAF1000FBCBF2D2384F8B4
:1050600043307E487E4BD4E763685A1C09F0DF0169
:1050700042D106236360002206920EAACDE9049273
:105080000DAA4BF4806303920DF13302CDE9013296
:105090002360636800934246534628460B91FFF70E
:1050A000D5FE0B99472980460D9908D1C81C02DB13
:1050B0006368994240DDA9F102095FFA89F9B9F103
:1050C000650F1FD801394A4604F150000D91FFF7D2
:1050D0001DFF0E9A1318012A8246236102DC226802
:1050E000D20701D5013323619DF83330002B9CD0CA
:1050F0002D2384F8433098E74729BCD1002BBAD13F
:105100000123B7E7B9F1660F18D1002963680BDDF9
:10511000216113B92268D00702D501330B44236102
:10512000A1654FF0000ADFE713B92268D20701D565
:105130000233F4E70123F2E74FF067090E9B99422F
:1051400005DB23682161D807EAD54B1CE7E7002976
:10515000D4BFC1F1020201221344E0E723685A05DB
:1051600007D42369424631462846B84701302BD13F
:1051700065E7B9F1650F40F2DC80D4E91201002245
:105180000023FCF7F3F8002833D0364A01233146D8
:105190002846B84701303FF452AFDDE90D239A426B
:1051A00002DB2368D8070FD5DDE9092331462846FD
:1051B000B84701303FF443AF4FF0000804F11A093B
:1051C0000E9B013B434509DC23689B0700F10181ED
:1051D000E0680F9B9842B8BF184632E701234A4661
:1051E00031462846B84701303FF429AF08F101089D
:1051F000E6E70D9B002B37DC1A4A0123314628468F
:10520000B84701303FF41BAFDDE90D23134302D152
:105210002368D907D8D5DDE9092331462846B847A0
:1052200001303FF40CAF4FF0000904F11A0A0D9B56
:105230005B424B4501DC0E9B94E70123524631460D
:105240002846B84701303FF4FAAE09F10109EEE70C
:10525000FFFFEF7F507B0008547B00085C7B000859
:10526000587B0008607B00080E9AA36D9A42A8BF85
:105270001A46002A914637DC4FF0000B29EAE979FB
:1052800004F11A02D4F858A0AAEB09035B4533DCF9
:10529000DDE90D239A423BDB2368DA0738D40E9B05
:1052A0000D99A3EB0A02A3EB01099145A8BF914612
:1052B000B9F1000F34DC4FF0000829EAE97904F174
:1052C0001A0ADDE90D239B1AA3EB090343457FF777
:1052D0007BAF0123524631462846B84701303FF4A0
:1052E000AEAE08F10108ECE71346314642462846C7
:1052F000B8470130C0D1A2E60123314628460B92BF
:10530000B84701303FF49BAE0B9A0BF1010BB9E7A4
:10531000DDE9092331462846B8470130BFD18EE682
:105320004B4608EB0A0231462846B8470130C2D145
:1053300085E60E9A012A01DCDB0737D501234246B8
:1053400031462846B84701303FF479AEDDE90923FC
:1053500031462846B84701303FF471AED4E9120116
:1053600000220023FCF702F8D8B90E9B08F10102D5
:10537000013B31462846B84701300ED15FE6012394
:105380004A4631462846B84701303FF458AE08F146
:1053900001080E9B013B4345F1DC534604F15002EA
:1053A000E1E64FF0000804F11A09F2E70123424652
:1053B000DFE701234A4631462846B84701303FF42B
:1053C0003EAE08F10108E3680F995B1A4345F0DC33
:1053D000FEE64FF0000804F11909F4E72DE9F04763
:1053E000164699468A680B69DDF820809342B8BF5B
:1053F0001346336091F8432007460C460AB1013347
:1054000033602368990642BF3368023333602568EE
:1054100015F0060506D104F1190AE36832689B1AF3
:10542000AB4226DC94F84320131E226818BF0123E8
:1054300092062BD404F1430249463846C047013056
:105440001ED02368E568326803F00603042B08BF0A
:10545000AD1AA36822690CBF25EAE57500259342C1
:10546000C4BF9B1AED1800261A34B5421AD1002089
:1054700008E00123524649463846C047013003D16F
:105480004FF0FF30BDE8F0870135C6E7E1185A1C40
:10549000302081F84300224494F8451082F84310EC
:1054A0000233C7E70123224649463846C047013048
:1054B000E6D00136D9E700002DE9FF470F7E0C9DAD
:1054C000782F914680460C469A4601F1430207D850
:1054D000622F0AD8002F00F0D880582F00F0A38048
:1054E00004F1420584F842703AE0A7F16303152BFA
:1054F000F6D801A151F823F0515500086555000870
:10550000E1540008E1540008E1540008E1540008A7
:1055100065550008E1540008E1540008E154000812
:10552000E1540008715600089555000853560008CC
:10553000E1540008E154000893560008E1540008C3
:1055400095550008E1540008E15400085B56000836
:105550002B681A1D1B682A6004F1420584F842304A
:105560000123A3E020682968060601F104030AD597
:105570000E682B60002E03DA2D23764284F8433028
:105580005E480A2319E00E682B6010F0400F18BF28
:1055900036B2EFE72B682068191D2960010601D596
:1055A0001E6802E04606FBD51E8854486F2F0CBFCC
:1055B00008230A23002184F843106568A560002DA4
:1055C000A2BF216821F0040121600EB9002D4DD049
:1055D0001546B6FBF3F103FB1167C75D05F8017DC6
:1055E0003746BB420E46F4D9082B0BD12368DE07A1
:1055F00008D5236961689942DEBF302305F8013C74
:1056000005F1FF35521B2261CDF800A04B4603AADD
:1056100021464046FFF7E2FE01304CD14FF0FF300B
:1056200004B0BDE8F087354881F8457029682368E3
:1056300051F8046B29601D0614D5DF0744BF43F001
:10564000200323601EB9236823F020032360102366
:10565000B0E7236843F0200323607823284884F8C8
:105660004530E3E7590648BFB6B2E6E71546BBE763
:105670002B6826686169181D286035061B6801D5EE
:10568000196002E07006FBD51980002323611546DE
:10569000BAE72B681A1D2A601D6862680021284637
:1056A000FBF7BEFD08B1401B606063682361002307
:1056B00084F84330A8E723692A4649464046D04744
:1056C0000130ABD023689B0713D4E068039B98425A
:1056D000B8BF1846A4E70123324649464046D047A2
:1056E00001309BD00135E36803995B1AAB42F2DCD1
:1056F000EBE7002504F11906F5E700BF627B00081F
:10570000737B00080FB40A4B13B51C6824B1A3695E
:1057100013B9204601F0D0F805AB049AA1680193B3
:10572000204601F081FE02B0BDE8104004B0704791
:105730005000002070B50E46054618B183690BB9BC
:1057400001F0BAF8AB69AC6813B9284601F0B4F8B7
:105750002C4B9C4220D16C68636EDB0705D4A38977
:10576000980502D4A06D01F04AF9A38919071DD547
:105770002369DBB1013EA36816F8011F013BA3605A
:1057800039BB002B38DA22460A21284600F048F8B7
:10579000013011D00A2511E01B4B9C4201D1AC68AD
:1057A000DAE71A4B9C4208BFEC68D5E72146284649
:1057B00000F088F80028DDD04FF0FF35636EDA077F
:1057C00005D4A3899B0502D4A06D01F019F92846E0
:1057D00070BD002B04DAA2699A4206DC0A2904D0C3
:1057E00023685A1C22601970C5E72246284600F03B
:1057F00017F80130BFD1DFE723680A255A1C226061
:105800001D70DBE7587C0008787C0008387C0008B5
:10581000024B01461868FFF78DBF00BF5000002003
:10582000F8B50E461446054618B183690BB901F068
:1058300043F8214B9C422BD16C68A369A360A389D8
:105840001A072FD523696BB323692068C01A6369CF
:10585000F6B28342374604DC2146284600F098FF22
:1058600030BBA368013BA36023685A1C22601E70F2
:1058700063690130834204D0A389DB0706D50A2E71
:1058800004D12146284600F083FF88B93846F8BD88
:105890000A4B9C4201D1AC68CFE7094B9C4208BF40
:1058A000EC68CAE72146284600F00CF80028CBD067
:1058B0004FF0FF37EAE700BF587C0008787C00080B
:1058C000387C0008324B70B51D6806460C4625B181
:1058D000AB6913B9284600F0EFFF2E4B9C420FD165
:1058E0006C68A389B4F90C2019072CD4DD0611D4F7
:1058F0000923336042F04003A3814FF0FF303EE0C4
:10590000254B9C4201D1AC68EBE7244B9C4208BF7D
:10591000EC68E6E7580712D5616B41B104F1440326
:10592000994202D0304601F079FC00236363A389D9
:1059300023F02403A3810023636023692360A389E8
:1059400043F00803A38123694BB9A38903F42073AF
:10595000B3F5007F03D02146304601F077F8A089E7
:10596000B4F90C2010F001030AD00023A36063698E
:105970005B42A361236943B910F08000BAD170BDC6
:10598000810758BF6369A360F4E70020F7E700BF11
:1059900050000020587C0008787C0008387C000803
:1059A0002DE9F74F03690C69A34207467DDB013CF3
:1059B00001F1140800F1140505EB8403019358F874
:1059C000243055F8242001339A424FEA840B08EB27
:1059D0008409B2FBF3F62ED34FF0000E4046AC46DE
:1059E000F24650F8042B93B206FB03E34FEA134E42
:1059F000120C9BB206FB02E2AAEB0303DCF800A048
:105A00004FEA124E92B213FA8AF3C2EB1A4202EB39
:105A100023429BB243EA024381454CF8043B4FEAE0
:105A2000224ADED255F80B302BB9019B043B9D4234
:105A30001A462ED33C61384601F0DCFA002824DBFC
:105A4000013628464FF0000C58F8042BD0F800E03F
:105A500093B2ACEB0303120C13FA8EF3C2EB1E42AB
:105A600002EB23429BB243EA0243C14540F8043BA8
:105A70004FEA224CE8D255F8242005EB840322B9E2
:105A8000043B9D421A460AD33C61304603B0BDE850
:105A9000F08F1268043B002ACCD1013CC7E71268A2
:105AA000043B002AF0D1013CEBE70020EEE70000C8
:105AB0002DE9F04F446A99B016461F46CDE90467B8
:105AC000DDF89480054674B9102000F0FFFF02460F
:105AD000686220B9A84BEA21A84801F03BFEC0E962
